{
  "_format": "hh-sol-artifact-1",
  "contractName": "CRCTShop",
  "sourceName": "contracts/Erc.sol",
  "abi": [
    {
      "inputs": [],
      "stateMutability": "nonpayable",
      "type": "constructor"
    },
    {
      "anonymous": false,
      "inputs": [
        {
          "indexed": false,
          "internalType": "uint256",
          "name": "_amount",
          "type": "uint256"
        },
        {
          "indexed": true,
          "internalType": "address",
          "name": "_buyer",
          "type": "address"
        }
      ],
      "name": "Bought",
      "type": "event"
    },
    {
      "anonymous": false,
      "inputs": [
        {
          "indexed": false,
          "internalType": "uint256",
          "name": "_amount",
          "type": "uint256"
        },
        {
          "indexed": true,
          "internalType": "address",
          "name": "_seller",
          "type": "address"
        }
      ],
      "name": "Sold",
      "type": "event"
    },
    {
      "inputs": [],
      "name": "buy",
      "outputs": [
        {
          "internalType": "bool",
          "name": "",
          "type": "bool"
        }
      ],
      "stateMutability": "payable",
      "type": "function"
    },
    {
      "inputs": [],
      "name": "owner",
      "outputs": [
        {
          "internalType": "address payable",
          "name": "",
          "type": "address"
        }
      ],
      "stateMutability": "view",
      "type": "function"
    },
    {
      "inputs": [],
      "name": "price",
      "outputs": [
        {
          "internalType": "uint256",
          "name": "",
          "type": "uint256"
        }
      ],
      "stateMutability": "view",
      "type": "function"
    },
    {
      "inputs": [
        {
          "internalType": "uint256",
          "name": "tokensToSell",
          "type": "uint256"
        }
      ],
      "name": "sell",
      "outputs": [
        {
          "internalType": "bool",
          "name": "",
          "type": "bool"
        }
      ],
      "stateMutability": "nonpayable",
      "type": "function"
    },
    {
      "inputs": [
        {
          "internalType": "uint256",
          "name": "newPrice",
          "type": "uint256"
        }
      ],
      "name": "setPrice",
      "outputs": [
        {
          "internalType": "bool",
          "name": "",
          "type": "bool"
        }
      ],
      "stateMutability": "nonpayable",
      "type": "function"
    },
    {
      "inputs": [],
      "name": "token",
      "outputs": [
        {
          "internalType": "contract IERC20",
          "name": "",
          "type": "address"
        }
      ],
      "stateMutability": "view",
      "type": "function"
    },
    {
      "inputs": [
        {
          "internalType": "address",
          "name": "user",
          "type": "address"
        }
      ],
      "name": "tokenBalance",
      "outputs": [
        {
          "internalType": "uint256",
          "name": "",
          "type": "uint256"
        }
      ],
      "stateMutability": "view",
      "type": "function"
    },
    {
      "stateMutability": "payable",
      "type": "receive"
    }
  ],
  "bytecode": "0x608060405266038d7ea4c6800060025534801561001b57600080fd5b5030604051610029906100d5565b6100339190610124565b604051809103906000f08015801561004f573d6000803e3d6000fd5b506000806101000a81548173ffffffffffffffffffffffffffffffffffffffff021916908373ffffffffffffffffffffffffffffffffffffffff16021790555033600160006101000a81548173ffffffffffffffffffffffffffffffffffffffff021916908373ffffffffffffffffffffffffffffffffffffffff16021790555061013f565b6119ea806200118783390190565b600073ffffffffffffffffffffffffffffffffffffffff82169050919050565b600061010e826100e3565b9050919050565b61011e81610103565b82525050565b60006020820190506101396000830184610115565b92915050565b611038806200014f6000396000f3fe6080604052600436106100745760003560e01c8063a6f2ae3a1161004e578063a6f2ae3a14610113578063e4849b3214610131578063eedc966a1461016e578063fc0c546a146101ab5761007b565b80638da5cb5b1461008057806391b7f5ed146100ab578063a035b1fe146100e85761007b565b3661007b57005b600080fd5b34801561008c57600080fd5b506100956101d6565b6040516100a2919061093b565b60405180910390f35b3480156100b757600080fd5b506100d260048036038101906100cd9190610991565b6101fc565b6040516100df91906109d9565b60405180910390f35b3480156100f457600080fd5b506100fd6102e1565b60405161010a9190610a03565b60405180910390f35b61011b6102e7565b60405161012891906109d9565b60405180910390f35b34801561013d57600080fd5b5061015860048036038101906101539190610991565b6104da565b60405161016591906109d9565b60405180910390f35b34801561017a57600080fd5b5061019560048036038101906101909190610a5c565b610832565b6040516101a29190610a03565b60405180910390f35b3480156101b757600080fd5b506101c06108d6565b6040516101cd9190610ae8565b60405180910390f35b600160009054906101000a900473ffffffffffffffffffffffffffffffffffffffff1681565b6000600160009054906101000a900473ffffffffffffffffffffffffffffffffffffffff1673ffffffffffffffffffffffffffffffffffffffff163373ffffffffffffffffffffffffffffffffffffffff161461028e576040517f08c379a000000000000000000000000000000000000000000000000000000000815260040161028590610b60565b60405180910390fd5b600082116102d1576040517f08c379a00000000000000000000000000000000000000000000000000000000081526004016102c890610bcc565b60405180910390fd5b8160028190555060019050919050565b60025481565b600080600254346102f89190610c4a565b90506000811161033d576040517f08c379a000000000000000000000000000000000000000000000000000000000815260040161033490610cc7565b60405180910390fd5b8061034730610832565b1015610388576040517f08c379a000000000000000000000000000000000000000000000000000000000815260040161037f90610d33565b60405180910390fd5b60008054906101000a900473ffffffffffffffffffffffffffffffffffffffff1673ffffffffffffffffffffffffffffffffffffffff1663a9059cbb33836040518363ffffffff1660e01b81526004016103e3929190610d62565b600060405180830381600087803b1580156103fd57600080fd5b505af1158015610411573d6000803e3d6000fd5b505050506000600254826104259190610d8b565b346104309190610dcd565b90506000811115610483573373ffffffffffffffffffffffffffffffffffffffff166108fc829081150290604051600060405180830381858888f19350505050158015610481573d6000803e3d6000fd5b505b3373ffffffffffffffffffffffffffffffffffffffff167fc54c8cc1c7525b424ec71b685c00d9355581a280488018c22005332ceb2fd406836040516104c99190610a03565b60405180910390a260019250505090565b6000808211801561058457508160008054906101000a900473ffffffffffffffffffffffffffffffffffffffff1673ffffffffffffffffffffffffffffffffffffffff166370a08231336040518263ffffffff1660e01b81526004016105409190610e01565b602060405180830381865afa15801561055d573d6000803e3d6000fd5b505050506040513d601f19601f820116820180604052508101906105819190610e31565b10155b6105c3576040517f08c379a00000000000000000000000000000000000000000000000000000000081526004016105ba90610eaa565b60405180910390fd5b60008060009054906101000a900473ffffffffffffffffffffffffffffffffffffffff1673ffffffffffffffffffffffffffffffffffffffff1663dd62ed3e33306040518363ffffffff1660e01b8152600401610621929190610eca565b602060405180830381865afa15801561063e573d6000803e3d6000fd5b505050506040513d601f19601f820116820180604052508101906106629190610e31565b9050828110156106a7576040517f08c379a000000000000000000000000000000000000000000000000000000000815260040161069e90610f3f565b60405180910390fd5b600254836106b59190610d8b565b4710156106f7576040517f08c379a00000000000000000000000000000000000000000000000000000000081526004016106ee90610fab565b60405180910390fd5b60008054906101000a900473ffffffffffffffffffffffffffffffffffffffff1673ffffffffffffffffffffffffffffffffffffffff166323b872dd3330866040518463ffffffff1660e01b815260040161075493929190610fcb565b600060405180830381600087803b15801561076e57600080fd5b505af1158015610782573d6000803e3d6000fd5b505050503373ffffffffffffffffffffffffffffffffffffffff166108fc600254856107ae9190610d8b565b9081150290604051600060405180830381858888f193505050501580156107d9573d6000803e3d6000fd5b503373ffffffffffffffffffffffffffffffffffffffff167fdc0971a41bd3cc3dec88e610438b1a9f0752975bbd80f195baf7b766c0aec03e846040516108209190610a03565b60405180910390a26001915050919050565b60008060009054906101000a900473ffffffffffffffffffffffffffffffffffffffff1673ffffffffffffffffffffffffffffffffffffffff166370a08231836040518263ffffffff1660e01b815260040161088e9190610e01565b602060405180830381865afa1580156108ab573d6000803e3d6000fd5b505050506040513d601f19601f820116820180604052508101906108cf9190610e31565b9050919050565b60008054906101000a900473ffffffffffffffffffffffffffffffffffffffff1681565b600073ffffffffffffffffffffffffffffffffffffffff82169050919050565b6000610925826108fa565b9050919050565b6109358161091a565b82525050565b6000602082019050610950600083018461092c565b92915050565b600080fd5b6000819050919050565b61096e8161095b565b811461097957600080fd5b50565b60008135905061098b81610965565b92915050565b6000602082840312156109a7576109a6610956565b5b60006109b58482850161097c565b91505092915050565b60008115159050919050565b6109d3816109be565b82525050565b60006020820190506109ee60008301846109ca565b92915050565b6109fd8161095b565b82525050565b6000602082019050610a1860008301846109f4565b92915050565b6000610a29826108fa565b9050919050565b610a3981610a1e565b8114610a4457600080fd5b50565b600081359050610a5681610a30565b92915050565b600060208284031215610a7257610a71610956565b5b6000610a8084828501610a47565b91505092915050565b6000819050919050565b6000610aae610aa9610aa4846108fa565b610a89565b6108fa565b9050919050565b6000610ac082610a93565b9050919050565b6000610ad282610ab5565b9050919050565b610ae281610ac7565b82525050565b6000602082019050610afd6000830184610ad9565b92915050565b600082825260208201905092915050565b7f6e6f7420616e206f776e65720000000000000000000000000000000000000000600082015250565b6000610b4a600c83610b03565b9150610b5582610b14565b602082019050919050565b60006020820190508181036000830152610b7981610b3d565b9050919050565b7f4e6577207072696365206973207a65726f000000000000000000000000000000600082015250565b6000610bb6601183610b03565b9150610bc182610b80565b602082019050919050565b60006020820190508181036000830152610be581610ba9565b9050919050565b7f4e487b7100000000000000000000000000000000000000000000000000000000600052601260045260246000fd5b7f4e487b7100000000000000000000000000000000000000000000000000000000600052601160045260246000fd5b6000610c558261095b565b9150610c608361095b565b925082610c7057610c6f610bec565b5b828204905092915050565b7f6e6f7420656e6f7567682066756e647321000000000000000000000000000000600082015250565b6000610cb1601183610b03565b9150610cbc82610c7b565b602082019050919050565b60006020820190508181036000830152610ce081610ca4565b9050919050565b7f6e6f7420656e6f75676820746f6b656e73210000000000000000000000000000600082015250565b6000610d1d601283610b03565b9150610d2882610ce7565b602082019050919050565b60006020820190508181036000830152610d4c81610d10565b9050919050565b610d5c81610a1e565b82525050565b6000604082019050610d776000830185610d53565b610d8460208301846109f4565b9392505050565b6000610d968261095b565b9150610da18361095b565b9250828202610daf8161095b565b91508282048414831517610dc657610dc5610c1b565b5b5092915050565b6000610dd88261095b565b9150610de38361095b565b9250828203905081811115610dfb57610dfa610c1b565b5b92915050565b6000602082019050610e166000830184610d53565b92915050565b600081519050610e2b81610965565b92915050565b600060208284031215610e4757610e46610956565b5b6000610e5584828501610e1c565b91505092915050565b7f696e636f727265637420616d6f756e74206f6620746f6b656e73210000000000600082015250565b6000610e94601b83610b03565b9150610e9f82610e5e565b602082019050919050565b60006020820190508181036000830152610ec381610e87565b9050919050565b6000604082019050610edf6000830185610d53565b610eec6020830184610d53565b9392505050565b7f636865636b20616c6c6f77616e63652100000000000000000000000000000000600082015250565b6000610f29601083610b03565b9150610f3482610ef3565b602082019050919050565b60006020820190508181036000830152610f5881610f1c565b9050919050565b7f4e6f7420656e6f756768206d6f6e657900000000000000000000000000000000600082015250565b6000610f95601083610b03565b9150610fa082610f5f565b602082019050919050565b60006020820190508181036000830152610fc481610f88565b9050919050565b6000606082019050610fe06000830186610d53565b610fed6020830185610d53565b610ffa60408301846109f4565b94935050505056fea2646970667358221220ec982cb25ebd1c869534e54505cc0c23175a6da07f0e4c6069326f6f1a0bc3a664736f6c6343000811003360806040523480156200001157600080fd5b50604051620019ea380380620019ea83398181016040528101906200003791906200031d565b6040518060400160405280601781526020017f43727970746f52616e646f6d436f66666565546f6b656e0000000000000000008152506040518060400160405280600481526020017f43524354000000000000000000000000000000000000000000000000000000008152506103e8838360049081620000b89190620005c9565b508260059081620000ca9190620005c9565b5033600160006101000a81548173ffffffffffffffffffffffffffffffffffffffff021916908373ffffffffffffffffffffffffffffffffffffffff1602179055506200011e81836200012960201b60201c565b5050505050620007cb565b600160009054906101000a900473ffffffffffffffffffffffffffffffffffffffff1673ffffffffffffffffffffffffffffffffffffffff163373ffffffffffffffffffffffffffffffffffffffff1614620001bc576040517f08c379a0000000000000000000000000000000000000000000000000000000008152600401620001b39062000711565b60405180910390fd5b620001d060008383620002ae60201b60201c565b80600260008473ffffffffffffffffffffffffffffffffffffffff1673ffffffffffffffffffffffffffffffffffffffff168152602001908152602001600020600082825462000221919062000762565b92505081905550806000808282546200023b919062000762565b925050819055508173ffffffffffffffffffffffffffffffffffffffff16600073ffffffffffffffffffffffffffffffffffffffff167fddf252ad1be2c89b69c2b068fc378daa952ba7f163c4a11628f55a4df523b3ef83604051620002a29190620007ae565b60405180910390a35050565b505050565b600080fd5b600073ffffffffffffffffffffffffffffffffffffffff82169050919050565b6000620002e582620002b8565b9050919050565b620002f781620002d8565b81146200030357600080fd5b50565b6000815190506200031781620002ec565b92915050565b600060208284031215620003365762000335620002b3565b5b6000620003468482850162000306565b91505092915050565b600081519050919050565b7f4e487b7100000000000000000000000000000000000000000000000000000000600052604160045260246000fd5b7f4e487b7100000000000000000000000000000000000000000000000000000000600052602260045260246000fd5b60006002820490506001821680620003d157607f821691505b602082108103620003e757620003e662000389565b5b50919050565b60008190508160005260206000209050919050565b60006020601f8301049050919050565b600082821b905092915050565b600060088302620004517fffffffffffffffffffffffffffffffffffffffffffffffffffffffffffffffff8262000412565b6200045d868362000412565b95508019841693508086168417925050509392505050565b6000819050919050565b6000819050919050565b6000620004aa620004a46200049e8462000475565b6200047f565b62000475565b9050919050565b6000819050919050565b620004c68362000489565b620004de620004d582620004b1565b8484546200041f565b825550505050565b600090565b620004f5620004e6565b62000502818484620004bb565b505050565b5b818110156200052a576200051e600082620004eb565b60018101905062000508565b5050565b601f82111562000579576200054381620003ed565b6200054e8462000402565b810160208510156200055e578190505b620005766200056d8562000402565b83018262000507565b50505b505050565b600082821c905092915050565b60006200059e600019846008026200057e565b1980831691505092915050565b6000620005b983836200058b565b9150826002028217905092915050565b620005d4826200034f565b67ffffffffffffffff811115620005f057620005ef6200035a565b5b620005fc8254620003b8565b620006098282856200052e565b600060209050601f8311600181146200064157600084156200062c578287015190505b620006388582620005ab565b865550620006a8565b601f1984166200065186620003ed565b60005b828110156200067b5784890151825560018201915060208501945060208101905062000654565b868310156200069b578489015162000697601f8916826200058b565b8355505b6001600288020188555050505b505050505050565b600082825260208201905092915050565b7f6e6f7420616e206f776e65720000000000000000000000000000000000000000600082015250565b6000620006f9600c83620006b0565b91506200070682620006c1565b602082019050919050565b600060208201905081810360008301526200072c81620006ea565b9050919050565b7f4e487b7100000000000000000000000000000000000000000000000000000000600052601160045260246000fd5b60006200076f8262000475565b91506200077c8362000475565b925082820190508082111562000797576200079662000733565b5b92915050565b620007a88162000475565b82525050565b6000602082019050620007c560008301846200079d565b92915050565b61120f80620007db6000396000f3fe6080604052600436106100ab5760003560e01c806370a082311161006457806370a08231146101b05780638da5cb5b146101ed57806395d89b41146102185780639dc29fac14610243578063a9059cbb1461026c578063dd62ed3e14610295576100b2565b806306fdde03146100b4578063095ea7b3146100df57806318160ddd1461010857806323b872dd14610133578063313ce5671461015c57806340c10f1914610187576100b2565b366100b257005b005b3480156100c057600080fd5b506100c96102d2565b6040516100d69190610d8f565b60405180910390f35b3480156100eb57600080fd5b5061010660048036038101906101019190610e4a565b610364565b005b34801561011457600080fd5b5061011d610373565b60405161012a9190610e99565b60405180910390f35b34801561013f57600080fd5b5061015a60048036038101906101559190610eb4565b61037c565b005b34801561016857600080fd5b5061017161063e565b60405161017e9190610e99565b60405180910390f35b34801561019357600080fd5b506101ae60048036038101906101a99190610e4a565b610647565b005b3480156101bc57600080fd5b506101d760048036038101906101d29190610f07565b6107bb565b6040516101e49190610e99565b60405180910390f35b3480156101f957600080fd5b50610202610804565b60405161020f9190610f43565b60405180910390f35b34801561022457600080fd5b5061022d61082a565b60405161023a9190610d8f565b60405180910390f35b34801561024f57600080fd5b5061026a60048036038101906102659190610e4a565b6108bc565b005b34801561027857600080fd5b50610293600480360381019061028e9190610e4a565b610a19565b005b3480156102a157600080fd5b506102bc60048036038101906102b79190610f5e565b610b88565b6040516102c99190610e99565b60405180910390f35b6060600480546102e190610fcd565b80601f016020809104026020016040519081016040528092919081815260200182805461030d90610fcd565b801561035a5780601f1061032f5761010080835404028352916020019161035a565b820191906000526020600020905b81548152906001019060200180831161033d57829003601f168201915b5050505050905090565b61036f338383610c0f565b5050565b60008054905090565b828180610388836107bb565b10156103c9576040517f08c379a00000000000000000000000000000000000000000000000000000000081526004016103c09061104a565b60405180910390fd5b6103d4858585610cfa565b82600360008773ffffffffffffffffffffffffffffffffffffffff1673ffffffffffffffffffffffffffffffffffffffff16815260200190815260200160002060003373ffffffffffffffffffffffffffffffffffffffff1673ffffffffffffffffffffffffffffffffffffffff168152602001908152602001600020541015610493576040517f08c379a000000000000000000000000000000000000000000000000000000000815260040161048a906110b6565b60405180910390fd5b82600360008773ffffffffffffffffffffffffffffffffffffffff1673ffffffffffffffffffffffffffffffffffffffff16815260200190815260200160002060003373ffffffffffffffffffffffffffffffffffffffff1673ffffffffffffffffffffffffffffffffffffffff168152602001908152602001600020600082825461051f9190611105565b9250508190555082600260008773ffffffffffffffffffffffffffffffffffffffff1673ffffffffffffffffffffffffffffffffffffffff16815260200190815260200160002060008282546105759190611105565b9250508190555082600260008673ffffffffffffffffffffffffffffffffffffffff1673ffffffffffffffffffffffffffffffffffffffff16815260200190815260200160002060008282546105cb9190611139565b925050819055508373ffffffffffffffffffffffffffffffffffffffff168573ffffffffffffffffffffffffffffffffffffffff167fddf252ad1be2c89b69c2b068fc378daa952ba7f163c4a11628f55a4df523b3ef8560405161062f9190610e99565b60405180910390a35050505050565b60006012905090565b600160009054906101000a900473ffffffffffffffffffffffffffffffffffffffff1673ffffffffffffffffffffffffffffffffffffffff163373ffffffffffffffffffffffffffffffffffffffff16146106d7576040517f08c379a00000000000000000000000000000000000000000000000000000000081526004016106ce906111b9565b60405180910390fd5b6106e360008383610cfa565b80600260008473ffffffffffffffffffffffffffffffffffffffff1673ffffffffffffffffffffffffffffffffffffffff16815260200190815260200160002060008282546107329190611139565b925050819055508060008082825461074a9190611139565b925050819055508173ffffffffffffffffffffffffffffffffffffffff16600073ffffffffffffffffffffffffffffffffffffffff167fddf252ad1be2c89b69c2b068fc378daa952ba7f163c4a11628f55a4df523b3ef836040516107af9190610e99565b60405180910390a35050565b6000600260008373ffffffffffffffffffffffffffffffffffffffff1673ffffffffffffffffffffffffffffffffffffffff168152602001908152602001600020549050919050565b600160009054906101000a900473ffffffffffffffffffffffffffffffffffffffff1681565b60606005805461083990610fcd565b80601f016020809104026020016040519081016040528092919081815260200182805461086590610fcd565b80156108b25780601f10610887576101008083540402835291602001916108b2565b820191906000526020600020905b81548152906001019060200180831161089557829003601f168201915b5050505050905090565b600160009054906101000a900473ffffffffffffffffffffffffffffffffffffffff1673ffffffffffffffffffffffffffffffffffffffff163373ffffffffffffffffffffffffffffffffffffffff161461094c576040517f08c379a0000000000000000000000000000000000000000000000000000000008152600401610943906111b9565b60405180910390fd5b818180610958836107bb565b1015610999576040517f08c379a00000000000000000000000000000000000000000000000000000000081526004016109909061104a565b60405180910390fd5b6109a584600085610cfa565b82600260008673ffffffffffffffffffffffffffffffffffffffff1673ffffffffffffffffffffffffffffffffffffffff16815260200190815260200160002060008282546109f49190611105565b9250508190555082600080828254610a0c9190611105565b9250508190555050505050565b338180610a25836107bb565b1015610a66576040517f08c379a0000000000000000000000000000000000000000000000000000000008152600401610a5d9061104a565b60405180910390fd5b610a71338585610cfa565b82600260003373ffffffffffffffffffffffffffffffffffffffff1673ffffffffffffffffffffffffffffffffffffffff1681526020019081526020016000206000828254610ac09190611105565b9250508190555082600260008673ffffffffffffffffffffffffffffffffffffffff1673ffffffffffffffffffffffffffffffffffffffff1681526020019081526020016000206000828254610b169190611139565b925050819055508373ffffffffffffffffffffffffffffffffffffffff163373ffffffffffffffffffffffffffffffffffffffff167fddf252ad1be2c89b69c2b068fc378daa952ba7f163c4a11628f55a4df523b3ef85604051610b7a9190610e99565b60405180910390a350505050565b6000600360008473ffffffffffffffffffffffffffffffffffffffff1673ffffffffffffffffffffffffffffffffffffffff16815260200190815260200160002060008373ffffffffffffffffffffffffffffffffffffffff1673ffffffffffffffffffffffffffffffffffffffff16815260200190815260200160002054905092915050565b80600360008573ffffffffffffffffffffffffffffffffffffffff1673ffffffffffffffffffffffffffffffffffffffff16815260200190815260200160002060008473ffffffffffffffffffffffffffffffffffffffff1673ffffffffffffffffffffffffffffffffffffffff168152602001908152602001600020819055508173ffffffffffffffffffffffffffffffffffffffff168373ffffffffffffffffffffffffffffffffffffffff167f8c5be1e5ebec7d5bd14f71427d1e84f3dd0314c0f7b2291e5b200ac8c7c3b92583604051610ced9190610e99565b60405180910390a3505050565b505050565b600081519050919050565b600082825260208201905092915050565b60005b83811015610d39578082015181840152602081019050610d1e565b60008484015250505050565b6000601f19601f8301169050919050565b6000610d6182610cff565b610d6b8185610d0a565b9350610d7b818560208601610d1b565b610d8481610d45565b840191505092915050565b60006020820190508181036000830152610da98184610d56565b905092915050565b600080fd5b600073ffffffffffffffffffffffffffffffffffffffff82169050919050565b6000610de182610db6565b9050919050565b610df181610dd6565b8114610dfc57600080fd5b50565b600081359050610e0e81610de8565b92915050565b6000819050919050565b610e2781610e14565b8114610e3257600080fd5b50565b600081359050610e4481610e1e565b92915050565b60008060408385031215610e6157610e60610db1565b5b6000610e6f85828601610dff565b9250506020610e8085828601610e35565b9150509250929050565b610e9381610e14565b82525050565b6000602082019050610eae6000830184610e8a565b92915050565b600080600060608486031215610ecd57610ecc610db1565b5b6000610edb86828701610dff565b9350506020610eec86828701610dff565b9250506040610efd86828701610e35565b9150509250925092565b600060208284031215610f1d57610f1c610db1565b5b6000610f2b84828501610dff565b91505092915050565b610f3d81610dd6565b82525050565b6000602082019050610f586000830184610f34565b92915050565b60008060408385031215610f7557610f74610db1565b5b6000610f8385828601610dff565b9250506020610f9485828601610dff565b9150509250929050565b7f4e487b7100000000000000000000000000000000000000000000000000000000600052602260045260246000fd5b60006002820490506001821680610fe557607f821691505b602082108103610ff857610ff7610f9e565b5b50919050565b7f4e6f7420656e6f75676820746f6b656e732e2e2e000000000000000000000000600082015250565b6000611034601483610d0a565b915061103f82610ffe565b602082019050919050565b6000602082019050818103600083015261106381611027565b9050919050565b7f636865636b20616c6c6f77616e63650000000000000000000000000000000000600082015250565b60006110a0600f83610d0a565b91506110ab8261106a565b602082019050919050565b600060208201905081810360008301526110cf81611093565b9050919050565b7f4e487b7100000000000000000000000000000000000000000000000000000000600052601160045260246000fd5b600061111082610e14565b915061111b83610e14565b9250828203905081811115611133576111326110d6565b5b92915050565b600061114482610e14565b915061114f83610e14565b9250828201905080821115611167576111666110d6565b5b92915050565b7f6e6f7420616e206f776e65720000000000000000000000000000000000000000600082015250565b60006111a3600c83610d0a565b91506111ae8261116d565b602082019050919050565b600060208201905081810360008301526111d281611196565b905091905056fea26469706673582212208a8fbca929017837129608b732a1f84e583d5ef2a0028da0a9d1782ced1c920464736f6c63430008110033",
  "linkReferences": {},
  "deployedLinkReferences": {}
}